{"abi":[{"type":"function","name":"main","inputs":[{"name":"unverifiedEmail","type":"tuple","internalType":"struct UnverifiedEmail","components":[{"name":"email","type":"string","internalType":"string"},{"name":"dnsRecords","type":"string[]","internalType":"string[]"}]}],"outputs":[{"name":"","type":"tuple","internalType":"struct Proof","components":[{"name":"seal","type":"tuple","internalType":"struct Seal","components":[{"name":"verifierSelector","type":"bytes4","internalType":"bytes4"},{"name":"seal","type":"bytes32[8]","internalType":"bytes32[8]"},{"name":"mode","type":"uint8","internalType":"enum ProofMode"}]},{"name":"callGuestId","type":"bytes32","internalType":"bytes32"},{"name":"length","type":"uint256","internalType":"uint256"},{"name":"callAssumptions","type":"tuple","internalType":"struct CallAssumptions","components":[{"name":"proverContractAddress","type":"address","internalType":"address"},{"name":"functionSelector","type":"bytes4","internalType":"bytes4"},{"name":"settleBlockNumber","type":"uint256","internalType":"uint256"},{"name":"settleBlockHash","type":"bytes32","internalType":"bytes32"}]}]}],"stateMutability":"view"},{"type":"function","name":"proof","inputs":[],"outputs":[{"name":"","type":"tuple","internalType":"struct Proof","components":[{"name":"seal","type":"tuple","internalType":"struct Seal","components":[{"name":"verifierSelector","type":"bytes4","internalType":"bytes4"},{"name":"seal","type":"bytes32[8]","internalType":"bytes32[8]"},{"name":"mode","type":"uint8","internalType":"enum ProofMode"}]},{"name":"callGuestId","type":"bytes32","internalType":"bytes32"},{"name":"length","type":"uint256","internalType":"uint256"},{"name":"callAssumptions","type":"tuple","internalType":"struct CallAssumptions","components":[{"name":"proverContractAddress","type":"address","internalType":"address"},{"name":"functionSelector","type":"bytes4","internalType":"bytes4"},{"name":"settleBlockNumber","type":"uint256","internalType":"uint256"},{"name":"settleBlockHash","type":"bytes32","internalType":"bytes32"}]}]}],"stateMutability":"pure"},{"type":"function","name":"setBlock","inputs":[{"name":"blockNo","type":"uint256","internalType":"uint256"}],"outputs":[],"stateMutability":"nonpayable"},{"type":"function","name":"setChain","inputs":[{"name":"chainId","type":"uint256","internalType":"uint256"},{"name":"blockNo","type":"uint256","internalType":"uint256"}],"outputs":[],"stateMutability":"nonpayable"},{"type":"error","name":"FailedInnerCall","inputs":[]}],"bytecode":{"object":"0x6080806040523460bf57600054600181811c9116801560b6575b602082101460a057601f8111605a575b507f68656c6c6f40657468676c6f62616c2e636f6d0000000000000000000000002660005561099190816100c58239f35b60008052601f0160051c7f290decd9548b62a8d60345a988386fc84ba6bc95484008f6362f93160ef3e563908101905b818110609557506029565b60008155600101608a565b634e487b7160e01b600052602260045260246000fd5b90607f16906019565b600080fdfe608080604052600436101561001357600080fd5b60003560e01c90816387cea3ae1461060a57508063b224ae691461011d578063faf924cf146100df5763ffbc56381461004b57600080fd5b346100da5760403660031901126100da57604051631ff78ac760e31b81526004356004820152602435602482015260208160448160007376dc9aa45aa006a0f63942d8f9f21bd4537972a35af180156100ce576100a457005b6100c59060203d6020116100c7575b6100bd8183610753565b810190610774565b005b503d6100b3565b6040513d6000823e3d90fd5b600080fd5b346100da5760003660031901126100da576100f861078c565b5061010161078c565b5061011961010d61078c565b60405191829182610658565b0390f35b346100da5760203660031901126100da576004356001600160401b0381116100da57604060031982360301126100da5761015561078c565b50600060405191604083018381106001600160401b038211176105f65760405280600401356001600160401b038111610586576101989060043691840101610830565b83526024810135906001600160401b03821161058657019136602384011215610582576004830135926001600160401b0384116105f6578360051b604051946101e46020830187610753565b855281016024016020850136821161057a5760248301905b8282106105c157505050506020810192835260608060405161021d81610722565b818152816020820152816040820152015260405161024e60208201926020845251604080840152608083019061089a565b9351603f19828603016060830152805180865260208601906020808260051b89010193019186905b828210610596578780808989610295818b03601f198101835282610753565b51906101015afa903d1561058a576102cf3d6102b081610815565b906102be6040519283610753565b81529283903d84602084013e610931565b5081518201916020830190602081850312610586576020810151906001600160401b03821161057e57019260809084900312610582576040519061031282610722565b60208401516001600160401b03811161057e57816020610334928701016108bf565b825260408401516001600160401b03811161057e57816020610358928701016108bf565b602083015260608401516001600160401b03811161057e5781602061037f928701016108bf565b93604083019485526080810151906001600160401b03821161057a576103a99291016020016108bf565b606082015251604051908283548060011c90600181168015610570575b60208310811461055c5782865290811561053857506001146104d8575b50906103f5836103fa94930383610753565b610904565b1561049357505160405161044d91610413606083610753565b602282527f596f7572207469636b657420666f7220455448476c6f62616c2042616e676b6f6020830152616b2160f01b6040830152610904565b1561045a576100f861078c565b60405162461bcd60e51b81526020600482015260116024820152701a5b98dbdc9c9958dd081cdd589a9958dd607a1b6044820152606490fd5b60405162461bcd60e51b815260206004820152601760248201527f696e636f72726563742073656e64657220646f6d61696e0000000000000000006044820152606490fd5b8480527f290decd9548b62a8d60345a988386fc84ba6bc95484008f6362f93160ef3e5639392915084905b80821061051c57509192509082016020016103f56103e3565b9192936001816020925483858901015201910190939291610503565b60ff191660208087019190915291151560051b850190910191506103f590506103e3565b634e487b7160e01b87526022600452602487fd5b91607f16916103c6565b8480fd5b8380fd5b5080fd5b8280fd5b6102cf60608093610931565b909192936020806105b3600193601f198d8203018652885161089a565b960192019201909291610276565b81356001600160401b0381116105f2576020916105e7839283600436928a010101610830565b8152019101906101fc565b8680fd5b634e487b7160e01b83526041600452602483fd5b346100da5760203660031901126100da576343e751d760e11b8152600480359082015260208160248160007376dc9aa45aa006a0f63942d8f9f21bd4537972a35af180156100ce576100a457005b815180516001600160e01b031916825260208082015161020084019594929160009085015b6008821061070c57505050604001519060028210156106f65761012083019190915260208082015161014084015260408083015161016085015260609283015180516001600160a01b0316610180860152918201516001600160e01b0319166101a08501528101516101c084015201516101e090910152565b634e487b7160e01b600052602160045260246000fd5b602080600192855181520193019101909161067d565b608081019081106001600160401b0382111761073d57604052565b634e487b7160e01b600052604160045260246000fd5b90601f801991011681019081106001600160401b0382111761073d57604052565b908160209103126100da575180151581036100da5790565b6040519061079982610722565b81604051606081018181106001600160401b0382111761073d5760405260008152610100604051906107cb8183610753565b368237602082015260006040820152815260006020820152600060408201526060604051916107f983610722565b6000835260006020840152600060408401526000828401520152565b6001600160401b03811161073d57601f01601f191660200190565b81601f820112156100da5780359061084782610815565b926108556040519485610753565b828452602083830101116100da57816000926020809301838601378301015290565b60005b83811061088a5750506000910152565b818101518382015260200161087a565b906020916108b381518092818552858086019101610877565b601f01601f1916010190565b81601f820112156100da5780516108d581610815565b926108e36040519485610753565b818452602082840101116100da576109019160208085019101610877565b90565b908151815190818114938461091b575b5050505090565b6020929394508201209201201438808080610914565b909190610959575080511561094857805190602001fd5b630a12f52160e11b60005260046000fd5b56fea26469706673582212200cf3e2e7f0743a235646d3f835fb6b48721c960d5c511b1b9f7acc743ba92f2b64736f6c634300081a0033","linkReferences":{}},"methodIdentifiers":{"main((string,string[]))":"b224ae69","proof()":"faf924cf","setBlock(uint256)":"87cea3ae","setChain(uint256,uint256)":"ffbc5638"},"id":65}