{"abi":[{"type":"constructor","inputs":[{"name":"_prover","type":"address","internalType":"address"}],"stateMutability":"nonpayable"},{"type":"function","name":"prover","inputs":[],"outputs":[{"name":"","type":"address","internalType":"address"}],"stateMutability":"view"},{"type":"function","name":"shiftOffset","inputs":[{"name":"data","type":"bytes","internalType":"bytes"},{"name":"shiftBy","type":"uint256","internalType":"uint256"},{"name":"offsetPosition","type":"uint256","internalType":"uint256"}],"outputs":[{"name":"","type":"bytes","internalType":"bytes"}],"stateMutability":"pure"},{"type":"function","name":"verifier","inputs":[],"outputs":[{"name":"","type":"address","internalType":"contract IProofVerifier"}],"stateMutability":"view"},{"type":"function","name":"verify","inputs":[{"name":"","type":"tuple","internalType":"struct Proof","components":[{"name":"seal","type":"tuple","internalType":"struct Seal","components":[{"name":"verifierSelector","type":"bytes4","internalType":"bytes4"},{"name":"seal","type":"bytes32[8]","internalType":"bytes32[8]"},{"name":"mode","type":"uint8","internalType":"enum ProofMode"}]},{"name":"callGuestId","type":"bytes32","internalType":"bytes32"},{"name":"length","type":"uint256","internalType":"uint256"},{"name":"callAssumptions","type":"tuple","internalType":"struct CallAssumptions","components":[{"name":"proverContractAddress","type":"address","internalType":"address"},{"name":"functionSelector","type":"bytes4","internalType":"bytes4"},{"name":"settleBlockNumber","type":"uint256","internalType":"uint256"},{"name":"settleBlockHash","type":"bytes32","internalType":"bytes32"}]}]}],"outputs":[],"stateMutability":"view"},{"type":"error","name":"InvalidChainId","inputs":[]}],"bytecode":{"object":"0x60803461009157601f61492438819003918201601f19168301916001600160401b038311848410176100965780849260209460405283398101031261009157516001600160a01b03811690819003610091576001600160a01b036100616100ac565b1660018060a01b0319600054161760005560018060a01b0319600154161760015560405161079d90816101ee8239f35b600080fd5b634e487b7160e01b600052604160045260246000fd5b6001461480156101e3575b80156101d8575b80156101cd575b80156101c2575b80156101b8575b80156101ad575b156100e457600090565b617a694614801561014a575b61010557633d23e4d160e11b60005260046000fd5b604051613f998082016001600160401b0381118382101761009657829161098b833903906000f0801561013e576001600160a01b031690565b6040513d6000823e3d90fd5b5062aa36a7461480156101a1575b8015610195575b8015610189575b801561017d575b806100f0575061012c46146100f0565b5062066eee461461016d565b50620138824614610166565b5062014a34461461015f565b5062aa37dc4614610158565b5061014446146100da565b50608946146100d3565b5061a4ba46146100cc565b5061a4b146146100c5565b5061210546146100be565b50600a46146100b756fe6080604052600436101561001257600080fd5b60003560e01c80632b7ac3f31461008057806332a8f30f1461005257806395f724cc1461004d5763e5e227731461004857600080fd5b610307565b6100b2565b3461007b57600036600319011261007b576001546040516001600160a01b039091168152602090f35b600080fd5b3461007b57600036600319011261007b576000546001600160a01b03166080908152602090f35b600091031261007b57565b3461007b5761020036600319011261007b576001546000906001600160a01b03166100db610506565b50366004116101f8576100ed3661060c565b906020836101816101758561016261014861013a610128610122608061011d6040610204980151610200906103ed565b6103ed565b856103e0565b61014161013a6102046101843661057e565b3691610271565b943661057e565b91610170610154610753565b6040519384918a83016106d5565b03601f19810184528361024f565b6106fd565b604051918280926106e6565b039060025afa156101ef5782518354849291906001600160a01b031690813b156101f4576101c694604051958694859384936312f238c760e21b8552600485016104c0565b03915afa80156101ef576101d8575080f35b806101e6836101ec9361024f565b806100a7565b80f35b6104fa565b8380fd5b5080fd5b634e487b7160e01b600052604160045260246000fd5b6080810190811067ffffffffffffffff82111761022e57604052565b6101fc565b6060810190811067ffffffffffffffff82111761022e57604052565b90601f8019910116810190811067ffffffffffffffff82111761022e57604052565b92919267ffffffffffffffff821161022e576040519161029b601f8201601f19166020018461024f565b82948184528183011161007b578281602093846000960137010152565b60005b8381106102cb5750506000910152565b81810151838201526020016102bb565b604091602082526102fb81518092816020860152602086860191016102b8565b601f01601f1916010190565b3461007b57606036600319011261007b5760043567ffffffffffffffff811161007b573660238201121561007b57610349903690602481600401359101610271565b6024359060443560800180608011610387578082511061038c578101918251908103908111610387576103839252604051918291826102db565b0390f35b6103ca565b60405162461bcd60e51b8152602060048201526016602482015275115b98dbd919590819185d18481d1bdbc81cda1bdc9d60521b6044820152606490fd5b634e487b7160e01b600052601160045260246000fd5b9190820180921161038757565b9190820391821161038757565b90815163ffffffff60e01b81511682526020810151602083016000905b600882106104aa57505050604001519160028310156104945761012082019290925260208083015161014083015260408084015161016084015260609384015180516001600160a01b0316610180850152918201516001600160e01b0319166101a08401528101516101c0830152909101516101e090910152565b565b634e487b7160e01b600052602160045260246000fd5b6020806001928551815201930191019091610417565b91939290936104d4836102608101966103fa565b6102008301526001600160a01b031661022082015263b224ae6960e01b61024090910152565b6040513d6000823e3d90fd5b6040519061051382610212565b8160405161052081610233565b60008152604051610100610534818361024f565b3682376020820152600060408201528152600060208201526000604082015260606040519161056283610212565b6000835260006020840152600060408401526000828401520152565b92919283821161007b57831161007b5780920390565b35906001600160e01b03198216820361007b57565b3590600282101561007b57565b919082608091031261007b576040516105ce81610212565b91829080356001600160a01b038116810361007b57606091829184526105f660208201610594565b6020850152604081013560408501520135910152565b906003198201610200811261007b576000926101406040519261062e84610212565b126101f4576040519361064085610233565b61064a6004610594565b855281604312156106d257604051946106656101008761024f565b8583610124116106ce576024905b61012482106106be5750506106b693949560208201526106946101246105a9565b60408201528452610144356020850152506101643560408401526101846105b6565b606082015290565b8135815260209182019101610673565b8280fd5b80fd5b6102008101929161049291906103fa565b906106f9602092828151948592016102b8565b0190565b60206104929294936107448260405197856107218a9751809285808b0191016102b8565b8601610735825180938580850191016102b8565b010191828151948592016102b8565b0103601f19810184528361024f565b61075b610506565b50610764610506565b9056fea2646970667358221220f758852a4c65397a32dba27c6b06661fe9c48252ffc56a6921acccbe8fd7d8e064736f6c634300081a00336080806040523460cd576111268181016001600160401b0381118382101760b75782916105a9833903906000f0801560ab57600080546001600160a01b0319166001600160a01b03929092169190911790556040516128ca8082016001600160401b0381118382101760b75782916116cf833903906000f0801560ab57600180546001600160a01b0319166001600160a01b03929092169190911790556040516104d690816100d38239f35b6040513d6000823e3d90fd5b634e487b7160e01b600052604160045260246000fd5b600080fdfe6080604052600436101561001257600080fd5b6000803560e01c80634bc8e31c146101305780634e8f93961461009b578063a01b86d3146100745763bf877a431461004957600080fd5b346100715780600319360112610071576001546040516001600160a01b039091168152602090f35b80fd5b5034610071578060031936011261007157546040516001600160a01b039091168152602090f35b5034610071578060031936011261007157600154604051632747c9cb60e11b815290602090829060049082906001600160a01b03165afa9081156101255782916100eb575b602082604051908152f35b90506020813d60201161011d575b81610106602093836102c2565b81010312610119576020915051386100e0565b5080fd5b3d91506100f9565b6040513d84823e3d90fd5b503461007157366003190161026081126101195761020013610071576102043590610224356001600160a01b03811681036101195761024435926001600160e01b0319841684036102be5761018c610187366102fa565b61047a565b9360028510156102aa5760018495146000146101ff5783546001600160a01b0316803b156101fb576101d7938593604051958694859384936312f238c760e21b8552600485016103ad565b03915afa8015610125576101ea57505080f35b816101f4916102c2565b6100715780f35b8480fd5b9091925061020f610187366102fa565b6002811015610296579084929115610229575b5050505080f35b6001546001600160a01b0316803b156102925761025f948493604051968794859384936312f238c760e21b8552600485016103ad565b03915afa801561028557610275575b8180610222565b61027e916102c2565b388161026e565b50604051903d90823e3d90fd5b8380fd5b634e487b7160e01b85526021600452602485fd5b634e487b7160e01b84526021600452602484fd5b8280fd5b90601f8019910116810190811067ffffffffffffffff8211176102e457604052565b634e487b7160e01b600052604160045260246000fd5b90610140600319830112610398576040516060810181811067ffffffffffffffff8211176102e4576040529182906004356001600160e01b03198116810361039857825280604312156103985760405190610100820182811067ffffffffffffffff8211176102e457604052819061012411610398576024905b610124821061039d5750506020820152610124359060028210156103985760400152565b600080fd5b8135815260209182019101610374565b9093919261026082019360043563ffffffff60e01b811680910361039857835261010060246020850137610124359560028710156103985760009661012085015261014435610140850152610164356101608501526101843560018060a01b038116809103610476576101808501526101a43563ffffffff60e01b8116809103610476576101a08501526101c4356101c08501526101e4356101e08501526102008401526001600160a01b03166102208301526001600160e01b03191661024090910152909150565b8780fd5b60400151600281101561048a5790565b634e487b7160e01b600052602160045260246000fdfea26469706673582212201233e163ee4f30ae3248183c3a687eccd8073d36fd155ee2d38935dcdd16948c64736f6c634300081a003360e0806040523461015b577fc0f59f76de44b1700c2de89e0eeffbbad523e049b6beef55441f371811f6276760c052600146148015610151575b8015610146575b801561013b575b8015610130575b8015610126575b801561011b575b61010a5761076c818101906001600160401b038211838310176100f45760209183916109ba833963deafbeef60e01b81520301906000f080156100e8576001600160a01b031660a052600160805260405161085990816101618239608051818181606d015261011b015260a0518181816101e20152610561015260c0518181816101ba01526105a80152f35b6040513d6000823e3d90fd5b634e487b7160e01b600052604160045260246000fd5b633d23e4d160e11b60005260046000fd5b50610144461461005c565b5060894614610055565b5061a4ba461461004e565b5061a4b14614610047565b506121054614610040565b50600a4614610039565b600080fdfe608080604052600436101561001357600080fd5b600090813560e01c90816308c84e701461054d575080634bc8e31c146100b95780634e8f9396146100b45780638d98dea9146100b457639a44ea841461005857600080fd5b346100b157806003193601126100b1576040517f0000000000000000000000000000000000000000000000000000000000000000600281101561009d57602092508152f35b634e487b7160e01b83526021600452602483fd5b80fd5b610590565b50346100b1573660031901610260811261054957610200811261054957610224356001600160a01b0381169081900361034357610244359063ffffffff60e01b821680920361032757604061010d3661065d565b5101516002811015610535577f000000000000000000000000000000000000000000000000000000000000000090600282101561052157036104e7576101523661065d565b91606083019160018060a01b0383515116036104b1578151602001516001600160e01b03191603610479576040815101514311156104245760408151015161010081018091116104105743116103bf57516040606082015191015140036103855760200151907f0000000000000000000000000000000000000000000000000000000000000000809203610347577f00000000000000000000000000000000000000000000000000000000000000006001600160a01b031690610140136103435760405161021f816105d0565b6004356001600160e01b03198116810361032b57815236604312156103275760405161024a81610602565b80366101241161033f576024905b610124821061032f57505060208201526101243590600282101561032b57610284916040820152610772565b813b156103275791839060405193849163ab750e7560e01b835260606004840152815191826064850152845b83811061030c5750506084838381938784819a97850101526024830152610204356044830152601f801991011681010301915afa80156102ff576102f15780f35b6102fa9161063b565b388180f35b50604051903d90823e3d90fd5b602081830181015160848a84010152899650889550016102b0565b8380fd5b8480fd5b8135815260209182019101610258565b8580fd5b8280fd5b60405162461bcd60e51b815260206004820152601660248201527510d85b1b11dd595cdd1259081b5a5cdb585d18da195960521b6044820152606490fd5b60405162461bcd60e51b8152602060048201526012602482015271092dcecc2d8d2c840c4d8dec6d640d0c2e6d60731b6044820152606490fd5b60405162461bcd60e51b815260206004820152602360248201527f496e76616c696420626c6f636b206e756d6265723a20626c6f636b20746f6f206044820152621bdb1960ea1b6064820152608490fd5b634e487b7160e01b85526011600452602485fd5b60405162461bcd60e51b815260206004820152602760248201527f496e76616c696420626c6f636b206e756d6265723a20626c6f636b2066726f6d6044820152662066757475726560c81b6064820152608490fd5b60405162461bcd60e51b815260206004820152601060248201526f24b73b30b634b21039b2b632b1ba37b960811b6044820152606490fd5b60405162461bcd60e51b815260206004820152600e60248201526d24b73b30b634b210383937bb32b960911b6044820152606490fd5b60405162461bcd60e51b8152602060048201526012602482015271496e76616c69642070726f6f66206d6f646560701b6044820152606490fd5b634e487b7160e01b86526021600452602486fd5b634e487b7160e01b85526021600452602485fd5b5080fd5b9050346105495781600319360112610549577f00000000000000000000000000000000000000000000000000000000000000006001600160a01b03168152602090f35b346105cb5760003660031901126105cb5760206040517f00000000000000000000000000000000000000000000000000000000000000008152f35b600080fd5b6060810190811067ffffffffffffffff8211176105ec57604052565b634e487b7160e01b600052604160045260246000fd5b610100810190811067ffffffffffffffff8211176105ec57604052565b6080810190811067ffffffffffffffff8211176105ec57604052565b90601f8019910116810190811067ffffffffffffffff8211176105ec57604052565b906102006003198301126105cb576040516106778161061f565b809261014060048203126105cb5760405190610692826105d0565b6004356001600160e01b0319811681036105cb57825260438113156105cb576040516106bd81610602565b61012490808383116105cb576024905b8382106107625750506020840152359160028310156105cb57608092604082015283526101443560208401526101643560408401526101831901126105cb57604051906107198261061f565b610184356001600160a01b03811681036105cb5782526101a435906001600160e01b0319821682036105cb5760609160208401526101c43560408401526101e435828401520152565b81358152602091820191016106cd565b6040810151600281101561080d576001036107ba576020810151519063ffffffff60e01b905116906040519160208301526024820152602481526107b760448261063b565b90565b602063ffffffff60e01b825116910151604051916020830152602482016000905b600882106107f75750505061010481526107b76101248261063b565b60208060019285518152019301910190916107db565b634e487b7160e01b600052602160045260246000fdfea26469706673582212207fca49357b1b7f80c852bf68b618c1b62054ade4fdd005808b042314755af34464736f6c634300081a003360a034607557601f61076c38819003918201601f19168301916001600160401b03831184841017607a57808492602094604052833981010312607557516001600160e01b0319811681036075576080526040516106db908161009182396080518181816101bb015281816102e301526103520152f35b600080fd5b634e487b7160e01b600052604160045260246000fdfe608080604052600436101561001357600080fd5b60003560e01c908163053c238d146101a8575080631599ead5146101335780633a115bb11461011457806366cf0e4b146100ce5763ab750e751461005657600080fd5b346100c95760603660031901126100c95760043567ffffffffffffffff81116100c957366023820112156100c95780600401359067ffffffffffffffff82116100c95736602483830101116100c9576100c79160246100c06100bb604435833561041f565b6105b2565b920161033e565b005b600080fd5b346100c95760403660031901126100c9576100e76102bb565b506101106101046100ff6100bb60243560043561041f565b6102d5565b6040519182918261020e565b0390f35b346100c95760203660031901126100c9576101106101046004356102d5565b346100c95760203660031901126100c95760043567ffffffffffffffff81116100c95780360360406003198201126100c957600482013590602219018112156100c957810160048101359067ffffffffffffffff82116100c9576024019080360382136100c95760246100c79301359161033e565b346100c95760003660031901126100c9577f00000000000000000000000000000000000000000000000000000000000000006001600160e01b0319168152602090f35b60005b8381106101fe5750506000910152565b81810151838201526020016101ee565b608091602082526020815191604082850152610238835180948160608801528488880191016101eb565b01516040830152601f01601f1916010190565b6040810190811067ffffffffffffffff82111761026757604052565b634e487b7160e01b600052604160045260246000fd5b60a0810190811067ffffffffffffffff82111761026757604052565b90601f8019910116810190811067ffffffffffffffff82111761026757604052565b604051906102c88261024b565b6000602083606081520152565b6102dd6102bb565b506040517f00000000000000000000000000000000000000000000000000000000000000006001600160e01b03191660208201526024808201839052815290610327604483610299565b604051916103348361024b565b8252602082015290565b81600411806100c9576001600160e01b03197f00000000000000000000000000000000000000000000000000000000000000008116908335168082036104085750506100c957600319820167ffffffffffffffff811161026757604051916103b0601b8501601f191660200184610299565b818352602083019336818301116100c9576000926004601c93018637830101525190209060405160208101918252602081526103ed604082610299565b519020036103f757565b63439cc0cd60e01b60005260046000fd5b632e2ce35360e21b60005260045260245260446000fd5b90600060806040516104308161027d565b8281528260208201526040516104458161024b565b838152836020820152604082015282606082015201526020600060116040517072697363302e53797374656d537461746560781b815260025afa156105a657602060006104cc8151604051848101918252836040820152836060820152600160f81b6064820152604681526104bb606682610299565b6040519283928392519283916101eb565b8101039060025afa156105a65760005190604051906104ea8261024b565b6000825260006020830152604051906105028261024b565b815260208101906000825260206000600c6040516b1c9a5cd8cc0b93dd5d1c1d5d60a21b815260025afa156105a65761056d6000916020938351915190516040519186830193845260408301526060820152600160f91b6080820152606281526104bb608282610299565b8101039060025afa156105a657600051916040519361058b8561027d565b84526020840152604083015260006060830152608082015290565b6040513d6000823e3d90fd5b6020600060126040517172697363302e52656365697074436c61696d60701b815260025afa156105a65760005160608201519082519060208401519260406080860151950192835151600381101561068f576020966000968861067c9751015193604051958a870197885260408701526060860152608085015260a084015263ffffffff60e01b9060ff60f81b9060f81b161660c083015263ffffffff60e01b9060ff60f81b9060f81b161660c4820152600160fa1b60c882015260aa81526104bb60ca82610299565b8101039060025afa156105a65760005190565b634e487b7160e01b600052602160045260246000fdfea2646970667358221220b815ded6c77a15d39fecf0f18de91dcb85ad5d14796f2df5a820576f75e6a8bd64736f6c634300081a003360e08060405234610117577fc0f59f76de44b1700c2de89e0eeffbbad523e049b6beef55441f371811f6276760c0526000608052611f54818101906001600160401b0382118383101761010157604091839161097683397fa516a057c9fbf5629106300934d48e0e775d4230e41e503347cad96fcbde7e2e81527f0eb6febcf06c5df079111be116f79bd8c7e85dc9448776ef9a59aaf2624ab55160208201520301906000f080156100f5576001600160a01b031660a052604051610859908161011d8239608051818181606d015261011b015260a0518181816101e20152610561015260c0518181816101ba01526105a80152f35b6040513d6000823e3d90fd5b634e487b7160e01b600052604160045260246000fd5b600080fdfe608080604052600436101561001357600080fd5b600090813560e01c90816308c84e701461054d575080634bc8e31c146100b95780634e8f9396146100b45780638d98dea9146100b457639a44ea841461005857600080fd5b346100b157806003193601126100b1576040517f0000000000000000000000000000000000000000000000000000000000000000600281101561009d57602092508152f35b634e487b7160e01b83526021600452602483fd5b80fd5b610590565b50346100b1573660031901610260811261054957610200811261054957610224356001600160a01b0381169081900361034357610244359063ffffffff60e01b821680920361032757604061010d3661065d565b5101516002811015610535577f000000000000000000000000000000000000000000000000000000000000000090600282101561052157036104e7576101523661065d565b91606083019160018060a01b0383515116036104b1578151602001516001600160e01b03191603610479576040815101514311156104245760408151015161010081018091116104105743116103bf57516040606082015191015140036103855760200151907f0000000000000000000000000000000000000000000000000000000000000000809203610347577f00000000000000000000000000000000000000000000000000000000000000006001600160a01b031690610140136103435760405161021f816105d0565b6004356001600160e01b03198116810361032b57815236604312156103275760405161024a81610602565b80366101241161033f576024905b610124821061032f57505060208201526101243590600282101561032b57610284916040820152610772565b813b156103275791839060405193849163ab750e7560e01b835260606004840152815191826064850152845b83811061030c5750506084838381938784819a97850101526024830152610204356044830152601f801991011681010301915afa80156102ff576102f15780f35b6102fa9161063b565b388180f35b50604051903d90823e3d90fd5b602081830181015160848a84010152899650889550016102b0565b8380fd5b8480fd5b8135815260209182019101610258565b8580fd5b8280fd5b60405162461bcd60e51b815260206004820152601660248201527510d85b1b11dd595cdd1259081b5a5cdb585d18da195960521b6044820152606490fd5b60405162461bcd60e51b8152602060048201526012602482015271092dcecc2d8d2c840c4d8dec6d640d0c2e6d60731b6044820152606490fd5b60405162461bcd60e51b815260206004820152602360248201527f496e76616c696420626c6f636b206e756d6265723a20626c6f636b20746f6f206044820152621bdb1960ea1b6064820152608490fd5b634e487b7160e01b85526011600452602485fd5b60405162461bcd60e51b815260206004820152602760248201527f496e76616c696420626c6f636b206e756d6265723a20626c6f636b2066726f6d6044820152662066757475726560c81b6064820152608490fd5b60405162461bcd60e51b815260206004820152601060248201526f24b73b30b634b21039b2b632b1ba37b960811b6044820152606490fd5b60405162461bcd60e51b815260206004820152600e60248201526d24b73b30b634b210383937bb32b960911b6044820152606490fd5b60405162461bcd60e51b8152602060048201526012602482015271496e76616c69642070726f6f66206d6f646560701b6044820152606490fd5b634e487b7160e01b86526021600452602486fd5b634e487b7160e01b85526021600452602485fd5b5080fd5b9050346105495781600319360112610549577f00000000000000000000000000000000000000000000000000000000000000006001600160a01b03168152602090f35b346105cb5760003660031901126105cb5760206040517f00000000000000000000000000000000000000000000000000000000000000008152f35b600080fd5b6060810190811067ffffffffffffffff8211176105ec57604052565b634e487b7160e01b600052604160045260246000fd5b610100810190811067ffffffffffffffff8211176105ec57604052565b6080810190811067ffffffffffffffff8211176105ec57604052565b90601f8019910116810190811067ffffffffffffffff8211176105ec57604052565b906102006003198301126105cb576040516106778161061f565b809261014060048203126105cb5760405190610692826105d0565b6004356001600160e01b0319811681036105cb57825260438113156105cb576040516106bd81610602565b61012490808383116105cb576024905b8382106107625750506020840152359160028310156105cb57608092604082015283526101443560208401526101643560408401526101831901126105cb57604051906107198261061f565b610184356001600160a01b03811681036105cb5782526101a435906001600160e01b0319821682036105cb5760609160208401526101c43560408401526101e435828401520152565b81358152602091820191016106cd565b6040810151600281101561080d576001036107ba576020810151519063ffffffff60e01b905116906040519160208301526024820152602481526107b760448261063b565b90565b602063ffffffff60e01b825116910151604051916020830152602482016000905b600882106107f75750505061010481526107b76101248261063b565b60208060019285518152019301910190916107db565b634e487b7160e01b600052602160045260246000fdfea264697066735822122097365c66df3ccec02512716144b5e9427f167fe898c21c3beafeba22a118981764736f6c634300081a00336101808060405234610c3357604081611f5480380380916100208285610c38565b833981010312610c335780516020918201519091600883811c7eff00ff00ff00ff00ff00ff00ff00ff00ff00ff00ff00ff00ff00ff00ff00ff169084901b7fff00ff00ff00ff00ff00ff00ff00ff00ff00ff00ff00ff00ff00ff00ff00ff001617601081811c7dffff0000ffff0000ffff0000ffff0000ffff0000ffff0000ffff0000ffff1691901b7fffff0000ffff0000ffff0000ffff0000ffff0000ffff0000ffff0000ffff0000161780821c7bffffffff00000000ffffffff00000000ffffffff00000000ffffffff16911b7fffffffff00000000ffffffff00000000ffffffff00000000ffffffff000000001617604081811c77ffffffffffffffff0000000000000000ffffffffffffffff1691901b7fffffffffffffffff0000000000000000ffffffffffffffff00000000000000001617608081811c91901b176001600160801b031981811660a052608091821b16905260c08190526040517f72697363302e47726f74683136526563656970745665726966696572506172618152656d657465727360d01b6020828101919091529060009060269060025afa15610a9e5760005190600881811c7eff00ff00ff00ff00ff00ff00ff00ff00ff00ff00ff00ff00ff00ff00ff00ff1691901b7fff00ff00ff00ff00ff00ff00ff00ff00ff00ff00ff00ff00ff00ff00ff00ff001617601081811c7dffff0000ffff0000ffff0000ffff0000ffff0000ffff0000ffff0000ffff1691901b7fffff0000ffff0000ffff0000ffff0000ffff0000ffff0000ffff0000ffff00001617602081811c7bffffffff00000000ffffffff00000000ffffffff00000000ffffffff1691901b7fffffffff00000000ffffffff00000000ffffffff00000000ffffffff000000001617604081811c77ffffffffffffffff0000000000000000ffffffffffffffff1691901b7fffffffffffffffff0000000000000000ffffffffffffffff00000000000000001617608081811c91901b179060e0604051916103088284610c38565b60068352601f198201366020850137602060006103876040517f12ac9a25dcd5e1a832a9061a082c15dd1d61aa9c4d553505739d0f5d65dc3be4848201527f025aa744581ebe7ad91731911c898569106ff5a2d30f3eee2b23c60ee980acd460408201526040815261037b606082610c38565b60405191828092610c71565b039060025afa15610a9e5760005161039e84610c9c565b52602060006104036040517f0707b920bc978c02f292fae2036e057be54294114ccc3c8769d883f688a1423f848201527f2e32a094b7589554f7bc357bf63481acd2d55555c203383782a4650787ff664260408201526040815261037b606082610c38565b039060025afa15610a9e5760005161041a84610ca9565b526020600061047f6040517f0bca36e2cbe6394b3e249751853f961511011c7148e336f4fd974644850fc347848201527f2ede7c9acf48cf3a3729fa3d68714e2a8435d4fa6db8f7f409c153b1fcdf9b8b60408201526040815261037b606082610c38565b039060025afa15610a9e57600051835160021015610c1d576060840152602060006105006040517f1b8af999dbfbb3927c091cc2aaf201e488cbacc3e2c6b6fb5a25f9112e04f2a7848201527f2b91a26aa92e1b6f5722949f192a81c850d586d81a60157f3e9cf04f679cccd660408201526040815261037b606082610c38565b039060025afa15610a9e57600051835160031015610c1d576080840152602060006105816040517f2b5f494ed674235b8ac1750bdfd5a7615f002d4a1dcefeddd06eda5a076ccd0d848201527f2fe520ad2020aab9cbba817fcbb9a863b8a76ff88f14f912c5e71665b2ad5e8260408201526040815261037b606082610c38565b039060025afa15610a9e57600051835160041015610c1d5760a0840152602060006106026040517f0f1c3c0d5d9da0fa03666843cde4e82e869ba5252fce3c25d5940320b1c4d493848201527f214bfcff74f425f6fe8c0d07b307482d8bc8bb2f3608f68287aa01bd0b69e80960408201526040815261037b606082610c38565b039060025afa15610a9e57600051835160051015610c1d5760c084015260206000601a6040517f72697363305f67726f746831362e566572696679696e674b6579000000000000815260025afa15610a9e5760005194602060006106bc6040517f2d4d9aa7e302d9df41749d5507949d05dbea33fbb16c643b22f599a2be6df2e2848201527f14bedd503c37ceb061d8ec60209fe345ce89830a19230301f076caff004d192660408201526040815261037b606082610c38565b039060025afa15610a9e57600051946020600061077b6040517f0967032fcbf776d1afc985f88877f182d38480a653f2decaa9794cbc3bf3060c848201527f0e187847ad4c798374d0d6732bf501847dd68bc0e071241e0213bc7fc13db7ab60408201527f304cfbd1e08a704a99f5e847d93f8c3caafddec46b7a0d379da69a4d112346a760608201527f1739c1b1a457a8c7313123d24d2f9192f896b7c63eea05a9d57f06547ad0cec860808201526080815261037b60a082610c38565b039060025afa15610a9e57600051966020600061083a6040517f198e9393920d483a7260bfb731fb5d25f1aa493335a9e71297e485b7aef312c2848201527f1800deef121f1e76426a00665e5c4479674322d4f75edadd46debd5cd992f6ed60408201527f090689d0585ff075ec9e99ad690c3395bc4b313370b38ef355acdadcd122975b60608201527f12c85ea5db8c6deb4aab71808dcb408fe3d1e7690c43d37b4ce6cc0166fa7daa60808201526080815261037b60a082610c38565b039060025afa15610a9e57600051602060006108f86040517f03b03cd5effa95ac9bee94f1f5ef907157bda4812ccf0b4c91f42bb629f83a1c848201527f1aa085ff28179a12d922dba0547057ccaae94b9d69cfaa4e60401fea7f3e033360408201527f110c10134f200b19f6490846d518c9aea868366efb7228ca5c91d2940d03076260608201527f1e60f31fcbf757e837e867178318832d0b2d74d59e2fea1c7142df187d3fc6d360808201526080815261037b60a082610c38565b039060025afa15610a9e576000519060206000601d6040517f72697363305f67726f746831362e566572696679696e674b65792e4943000000815260025afa15610a9e5760008051610140526101008190526060610120526020610160525b885180610100511015610b0c57600019810190808211610af65761010051900360001901908111610af65760008a51821015610ae25750610160519060051b8a01015190604051916109ac6101205184610c38565b600283526101605160409036908501376109c583610c9c565b526109cf82610ca9565b52604051906109e16101605183610c38565b60008252601f196101605101366101605184013780519061ffff8211610ac85791604051928391610140516101605184015260408301825190926101605101906000905b808210610aaa5750505092610a4060029392610a6d95610c71565b9061ffff60f01b9061ff0060ff8260081c169160081b161760f01b16815203601d19810184520182610c38565b600060405180610a81816101605195610c71565b039060025afa15610a9e5760005161010080516001019052610957565b6040513d6000823e3d90fd5b82518552610160518896509485019490920191600190910190610a25565b506306dfcc6560e41b600052601060045260245260446000fd5b634e487b7160e01b81526032600452602490fd5b634e487b7160e01b600052601160045260246000fd5b5091908a8a604051956101605187015260408601526060850152608084015260a083015260c0820152600560f81b8582015260c28152610b4d60e282610c38565b600060405180610b61816101605195610c71565b039060025afa15610a9e57600051916040519361016051850152604084015260608301526080820152600360f81b60a082015260828152610ba360a282610c38565b600060405180610bb7816101605195610c71565b039060025afa15610a9e576000516001600160e01b031916815260405161129a9182610cba83396080518281816105cb0152610d6c015260a0518281816105860152610d92015260c05182818161015f0152610dca01525181818160a20152610cd80152f35b634e487b7160e01b600052603260045260246000fd5b600080fd5b601f909101601f19168101906001600160401b03821190821017610c5b57604052565b634e487b7160e01b600052604160045260246000fd5b9081519160005b838110610c89575050016000815290565b8060208092840101518185015201610c78565b805115610c1d5760200190565b805160011015610c1d576040019056fe6080604052600436101561001257600080fd5b60003560e01c8063053c238d146100875780631599ead514610082578063258038e21461007d57806334baeab9146100785780638989fa2e146100735780639181e4b11461006e5763ab750e751461006957600080fd5b6105ef565b6105aa565b610565565b61019d565b610147565b6100d0565b346100cb5760003660031901126100cb5763ffffffff60e01b7f00000000000000000000000000000000000000000000000000000000000000001660805260206080f35b600080fd5b346100cb5760203660031901126100cb5760043567ffffffffffffffff81116100cb5780360360406003198201126100cb57600482013590602219018112156100cb57810160048101359067ffffffffffffffff82116100cb576024019080360382136100cb57602461014593013591610cd4565b005b346100cb5760003660031901126100cb5760206040517f00000000000000000000000000000000000000000000000000000000000000008152f35b906004916044116100cb57565b9060c491610104116100cb57565b346100cb576101a03660031901126100cb576101b836610182565b3660c4116100cb576101c93661018f565b366101a4116100cb57604051906103808201604052610104356101eb81610652565b61012435936101f985610652565b6101443561020681610652565b6101643561021381610652565b610184359161022183610652565b61022d6101a435610652565b60808701977f12ac9a25dcd5e1a832a9061a082c15dd1d61aa9c4d553505739d0f5d65dc3be4885260208801957f025aa744581ebe7ad91731911c898569106ff5a2d30f3eee2b23c60ee980acd487526102879089610685565b6102919088610711565b61029b908761079d565b6102a59086610829565b6102af90856108b5565b803585527f30644e72e131a029b85045b68181585d97816a916871ca8d3c208c16d87cfd4760209182013581030660a085015260443560c085015260643560e085015260843561010085015260a4356101208501527f2d4d9aa7e302d9df41749d5507949d05dbea33fbb16c643b22f599a2be6df2e26101408501527f14bedd503c37ceb061d8ec60209fe345ce89830a19230301f076caff004d19266101608501527f0967032fcbf776d1afc985f88877f182d38480a653f2decaa9794cbc3bf3060c6101808501527f0e187847ad4c798374d0d6732bf501847dd68bc0e071241e0213bc7fc13db7ab6101a08501527f304cfbd1e08a704a99f5e847d93f8c3caafddec46b7a0d379da69a4d112346a76101c08501527f1739c1b1a457a8c7313123d24d2f9192f896b7c63eea05a9d57f06547ad0cec86101e0850152835161020085015290516102208401527f198e9393920d483a7260bfb731fb5d25f1aa493335a9e71297e485b7aef312c26102408401527f1800deef121f1e76426a00665e5c4479674322d4f75edadd46debd5cd992f6ed6102608401527f090689d0585ff075ec9e99ad690c3395bc4b313370b38ef355acdadcd122975b6102808401527f12c85ea5db8c6deb4aab71808dcb408fe3d1e7690c43d37b4ce6cc0166fa7daa6102a084015281356102c084015201356102e08201527f03b03cd5effa95ac9bee94f1f5ef907157bda4812ccf0b4c91f42bb629f83a1c6103008201527f1aa085ff28179a12d922dba0547057ccaae94b9d69cfaa4e60401fea7f3e03336103208201527f110c10134f200b19f6490846d518c9aea868366efb7228ca5c91d2940d0307626103408201527f1e60f31fcbf757e837e867178318832d0b2d74d59e2fea1c7142df187d3fc6d36103609091015280806107cf195a01602092600861030092fa90511660005260206000f35b346100cb5760003660031901126100cb5760206040516001600160801b03197f0000000000000000000000000000000000000000000000000000000000000000168152f35b346100cb5760003660031901126100cb5760206040516001600160801b03197f0000000000000000000000000000000000000000000000000000000000000000168152f35b346100cb5760603660031901126100cb5760043567ffffffffffffffff81116100cb57366023820112156100cb5780600401359067ffffffffffffffff82116100cb5736602483830101116100cb57610145916024359060246044359301610941565b7f30644e72e131a029b85045b68181585d2833e84879b9709143e1f593f0000001111561067b57565b6000805260206000f35b604051917f0707b920bc978c02f292fae2036e057be54294114ccc3c8769d883f688a1423f83527f2e32a094b7589554f7bc357bf63481acd2d55555c203383782a4650787ff664260208401526040830190815260408360608160076107cf195a01fa1561067b57815190526020810151606083015260409160809060066107cf195a01fa1561067b57565b604051917f0bca36e2cbe6394b3e249751853f961511011c7148e336f4fd974644850fc34783527f2ede7c9acf48cf3a3729fa3d68714e2a8435d4fa6db8f7f409c153b1fcdf9b8b60208401526040830190815260408360608160076107cf195a01fa1561067b57815190526020810151606083015260409160809060066107cf195a01fa1561067b57565b604051917f1b8af999dbfbb3927c091cc2aaf201e488cbacc3e2c6b6fb5a25f9112e04f2a783527f2b91a26aa92e1b6f5722949f192a81c850d586d81a60157f3e9cf04f679cccd660208401526040830190815260408360608160076107cf195a01fa1561067b57815190526020810151606083015260409160809060066107cf195a01fa1561067b57565b604051917f2b5f494ed674235b8ac1750bdfd5a7615f002d4a1dcefeddd06eda5a076ccd0d83527f2fe520ad2020aab9cbba817fcbb9a863b8a76ff88f14f912c5e71665b2ad5e8260208401526040830190815260408360608160076107cf195a01fa1561067b57815190526020810151606083015260409160809060066107cf195a01fa1561067b57565b604051917f0f1c3c0d5d9da0fa03666843cde4e82e869ba5252fce3c25d5940320b1c4d49383527f214bfcff74f425f6fe8c0d07b307482d8bc8bb2f3608f68287aa01bd0b69e80960208401526040830190815260408360608160076107cf195a01fa1561067b57815190526020810151606083015260409160809060066107cf195a01fa1561067b57565b916109e3906109e9946000608060405161095a81610a62565b82815282602082015260405161096f81610a83565b8381528360208201526040820152826060820152015261098d610ecd565b906109bc610999610add565b9160008352600060208401526109ad610add565b90815260006020820152611201565b916109c5610aec565b93845260208401526040830152600060608301526080820152610fae565b91610cd4565b565b906004116100cb5790600490565b90929192836004116100cb5783116100cb57600401916003190190565b356001600160e01b0319811692919060048210610a31575050565b6001600160e01b031960049290920360031b82901b16169150565b634e487b7160e01b600052604160045260246000fd5b60a0810190811067ffffffffffffffff821117610a7e57604052565b610a4c565b6040810190811067ffffffffffffffff821117610a7e57604052565b6060810190811067ffffffffffffffff821117610a7e57604052565b90601f8019910116810190811067ffffffffffffffff821117610a7e57604052565b604051906109e9604083610abb565b604051906109e960a083610abb565b906109e96040519283610abb565b9080601f830112156100cb576040805192610b248285610abb565b839181019283116100cb57905b828210610b3e5750505090565b8135815260209182019101610b31565b610100818303126100cb57604051916000610b6884610a9f565b610b728284610b09565b845281605f84011215610bde57604092835190610b8f8583610abb565b819060c0810193858511610bde575085809101915b848310610bc4575050506020850152610bbd9190610b09565b9082015290565b602090610bd18785610b09565b8152019101908590610ba4565b80fd5b908160209103126100cb575180151581036100cb5790565b906000905b60028210610c0b57505050565b6020806001928551815201930191019091610bfe565b906000905b60058210610c3357505050565b6020806001928551815201930191019091610c26565b919493929094610c5e836101a0810197610bf9565b6000604084015b60028210610c8d5750505081610c866101009260c06109e996950190610bf9565b0190610c21565b8251600090825b60028310610cb2575050506020604060019201930191019091610c65565b6020806001928451815201920192019190610c94565b6040513d6000823e3d90fd5b90917f0000000000000000000000000000000000000000000000000000000000000000610d1a610d0d610d0786866109eb565b90610a16565b6001600160e01b03191690565b6001600160e01b0319821603610e6a575090610d4e610d4684610d3e60209561107e565b9690946109f9565b810190610b4e565b90610e0982519160408585015194015195610d6960a0610afb565b917f000000000000000000000000000000000000000000000000000000000000000060801c83527f000000000000000000000000000000000000000000000000000000000000000060801c8784015260801c604083015260801c60608201527f0000000000000000000000000000000000000000000000000000000000000000608082015260405195869485946334baeab960e01b865260048601610c49565b0381305afa908115610e6557600091610e36575b5015610e2557565b63439cc0cd60e01b60005260046000fd5b610e58915060203d602011610e5e575b610e508183610abb565b810190610be1565b38610e1d565b503d610e46565b610cc8565b610e9e90610e7b610d0786866109eb565b632e2ce35360e21b6000526001600160e01b031990811660045216602452604490565b6000fd5b9081519160005b838110610eba575050016000815290565b8060208092840101518185015201610ea9565b6020600060116040517072697363302e53797374656d537461746560781b815260025afa15610e6557600080516040805160208181019390935290810183905260608101839052600160f81b606482015260468152909190610f4090610f34606682610abb565b60405191828092610ea2565b039060025afa15610e655760005190565b60031115610f5b57565b634e487b7160e01b600052602160045260246000fd5b6020600060126040517172697363302e52656365697074436c61696d60701b815260025afa15610e655760005190565b516003811015610f5b5790565b6000610f40602092610f34610fc1610f71565b611070606084015193805190888101519060406080820151910190611018610ffc6110128d611008610ff38751610fa1565b610ffc81610f51565b60181b63ff0000001690565b9551015160ff1690565b60ff1690565b604080518d8101988952602089019a909a52870194909452606086019290925260808501919091526001600160e01b031960e091821b811660a086015291901b1660a4830152600160fa1b60a8830152839160aa0190565b03601f198101835282610abb565b8060081c9060081b907cff000000ff000000ff000000ff000000ff000000ff000000ff000000ff7dff000000ff000000ff000000ff000000ff000000ff000000ff000000ff007fff000000ff000000ff000000ff000000ff000000ff000000ff000000ff00000084167eff000000ff000000ff000000ff000000ff000000ff000000ff000000ff000084161760101c931691161760101b176111647bffffffff00000000ffffffff00000000ffffffff00000000ffffffff7fffffffff00000000ffffffff00000000ffffffff00000000ffffffff00000000831660201c921660201b90565b17604081811c77ffffffffffffffff0000000000000000ffffffffffffffff169177ffffffffffffffff0000000000000000ffffffffffffffff19911b16176111b76111b08260801c90565b9160801b90565b17906111ee6111d56111c98460801c90565b6001600160801b031690565b60801b6fffffffffffffffffffffffffffffffff191690565b916001600160801b03199060801b169190565b60206000600c6040516b1c9a5cd8cc0b93dd5d1c1d5d60a21b815260025afa15610e655760008051825160209384015160408051808701949094528301919091526060820152600160f91b608082015260628152610f4090610f34608282610abb56fea26469706673582212207e2c2801edd9eeab5fbccbd5413bcfe3fd977ea9bad08008e159a43b122f021a64736f6c634300081a0033","linkReferences":{}},"methodIdentifiers":{"prover()":"32a8f30f","shiftOffset(bytes,uint256,uint256)":"e5e22773","verifier()":"2b7ac3f3","verify(((bytes4,bytes32[8],uint8),bytes32,uint256,(address,bytes4,uint256,bytes32)))":"95f724cc"},"id":64}